{
  "_format": "hh-sol-artifact-1",
  "contractName": "NFTMarket",
  "sourceName": "contracts/NFTMarket.sol",
  "abi": [
    {
      "inputs": [],
      "stateMutability": "nonpayable",
      "type": "constructor"
    },
    {
      "anonymous": false,
      "inputs": [
        {
          "indexed": true,
          "internalType": "uint256",
          "name": "itemId",
          "type": "uint256"
        },
        {
          "indexed": true,
          "internalType": "address",
          "name": "nftContract",
          "type": "address"
        },
        {
          "indexed": true,
          "internalType": "uint256",
          "name": "tokenId",
          "type": "uint256"
        },
        {
          "indexed": false,
          "internalType": "uint256",
          "name": "uniqueId",
          "type": "uint256"
        },
        {
          "indexed": false,
          "internalType": "address",
          "name": "seller",
          "type": "address"
        },
        {
          "indexed": false,
          "internalType": "address",
          "name": "owner",
          "type": "address"
        },
        {
          "indexed": false,
          "internalType": "uint256",
          "name": "price",
          "type": "uint256"
        },
        {
          "indexed": false,
          "internalType": "uint256",
          "name": "deliveryDate",
          "type": "uint256"
        },
        {
          "indexed": false,
          "internalType": "uint256",
          "name": "warrantyPeriod",
          "type": "uint256"
        },
        {
          "indexed": false,
          "internalType": "bool",
          "name": "expired",
          "type": "bool"
        },
        {
          "indexed": false,
          "internalType": "bool",
          "name": "sold",
          "type": "bool"
        }
      ],
      "name": "MarketItemCreated",
      "type": "event"
    },
    {
      "inputs": [
        {
          "internalType": "uint256",
          "name": "i",
          "type": "uint256"
        }
      ],
      "name": "checkWarranty",
      "outputs": [],
      "stateMutability": "nonpayable",
      "type": "function"
    },
    {
      "inputs": [
        {
          "internalType": "address",
          "name": "nftContract",
          "type": "address"
        },
        {
          "internalType": "uint256",
          "name": "tokenId",
          "type": "uint256"
        },
        {
          "internalType": "uint256",
          "name": "uniqueId",
          "type": "uint256"
        },
        {
          "internalType": "uint256",
          "name": "price",
          "type": "uint256"
        },
        {
          "internalType": "uint256",
          "name": "warrantyPeriod",
          "type": "uint256"
        }
      ],
      "name": "createMarketItem",
      "outputs": [],
      "stateMutability": "payable",
      "type": "function"
    },
    {
      "inputs": [
        {
          "internalType": "address",
          "name": "nftContract",
          "type": "address"
        },
        {
          "internalType": "uint256",
          "name": "itemId",
          "type": "uint256"
        }
      ],
      "name": "createMarketSale",
      "outputs": [],
      "stateMutability": "payable",
      "type": "function"
    },
    {
      "inputs": [],
      "name": "fetchItemsCreated",
      "outputs": [
        {
          "components": [
            {
              "internalType": "uint256",
              "name": "itemId",
              "type": "uint256"
            },
            {
              "internalType": "address",
              "name": "nftContract",
              "type": "address"
            },
            {
              "internalType": "uint256",
              "name": "tokenId",
              "type": "uint256"
            },
            {
              "internalType": "uint256",
              "name": "uniqueId",
              "type": "uint256"
            },
            {
              "internalType": "address payable",
              "name": "seller",
              "type": "address"
            },
            {
              "internalType": "address payable",
              "name": "owner",
              "type": "address"
            },
            {
              "internalType": "uint256",
              "name": "price",
              "type": "uint256"
            },
            {
              "internalType": "uint256",
              "name": "deliveryDate",
              "type": "uint256"
            },
            {
              "internalType": "uint256",
              "name": "warrantyPeriod",
              "type": "uint256"
            },
            {
              "internalType": "bool",
              "name": "expired",
              "type": "bool"
            },
            {
              "internalType": "bool",
              "name": "sold",
              "type": "bool"
            }
          ],
          "internalType": "struct NFTMarket.MarketItem[]",
          "name": "",
          "type": "tuple[]"
        }
      ],
      "stateMutability": "view",
      "type": "function"
    },
    {
      "inputs": [],
      "name": "fetchMarketItems",
      "outputs": [
        {
          "components": [
            {
              "internalType": "uint256",
              "name": "itemId",
              "type": "uint256"
            },
            {
              "internalType": "address",
              "name": "nftContract",
              "type": "address"
            },
            {
              "internalType": "uint256",
              "name": "tokenId",
              "type": "uint256"
            },
            {
              "internalType": "uint256",
              "name": "uniqueId",
              "type": "uint256"
            },
            {
              "internalType": "address payable",
              "name": "seller",
              "type": "address"
            },
            {
              "internalType": "address payable",
              "name": "owner",
              "type": "address"
            },
            {
              "internalType": "uint256",
              "name": "price",
              "type": "uint256"
            },
            {
              "internalType": "uint256",
              "name": "deliveryDate",
              "type": "uint256"
            },
            {
              "internalType": "uint256",
              "name": "warrantyPeriod",
              "type": "uint256"
            },
            {
              "internalType": "bool",
              "name": "expired",
              "type": "bool"
            },
            {
              "internalType": "bool",
              "name": "sold",
              "type": "bool"
            }
          ],
          "internalType": "struct NFTMarket.MarketItem[]",
          "name": "",
          "type": "tuple[]"
        }
      ],
      "stateMutability": "view",
      "type": "function"
    },
    {
      "inputs": [],
      "name": "fetchMyNFTs",
      "outputs": [
        {
          "components": [
            {
              "internalType": "uint256",
              "name": "itemId",
              "type": "uint256"
            },
            {
              "internalType": "address",
              "name": "nftContract",
              "type": "address"
            },
            {
              "internalType": "uint256",
              "name": "tokenId",
              "type": "uint256"
            },
            {
              "internalType": "uint256",
              "name": "uniqueId",
              "type": "uint256"
            },
            {
              "internalType": "address payable",
              "name": "seller",
              "type": "address"
            },
            {
              "internalType": "address payable",
              "name": "owner",
              "type": "address"
            },
            {
              "internalType": "uint256",
              "name": "price",
              "type": "uint256"
            },
            {
              "internalType": "uint256",
              "name": "deliveryDate",
              "type": "uint256"
            },
            {
              "internalType": "uint256",
              "name": "warrantyPeriod",
              "type": "uint256"
            },
            {
              "internalType": "bool",
              "name": "expired",
              "type": "bool"
            },
            {
              "internalType": "bool",
              "name": "sold",
              "type": "bool"
            }
          ],
          "internalType": "struct NFTMarket.MarketItem[]",
          "name": "",
          "type": "tuple[]"
        }
      ],
      "stateMutability": "view",
      "type": "function"
    },
    {
      "inputs": [],
      "name": "getItemName",
      "outputs": [
        {
          "internalType": "bytes32",
          "name": "",
          "type": "bytes32"
        }
      ],
      "stateMutability": "view",
      "type": "function"
    },
    {
      "inputs": [],
      "name": "getListingPrice",
      "outputs": [
        {
          "internalType": "uint256",
          "name": "",
          "type": "uint256"
        }
      ],
      "stateMutability": "view",
      "type": "function"
    },
    {
      "inputs": [],
      "name": "getWarranty",
      "outputs": [
        {
          "internalType": "uint256",
          "name": "",
          "type": "uint256"
        }
      ],
      "stateMutability": "view",
      "type": "function"
    }
  ],
  "bytecode": "0x60806040526658d15e176280006004557f74656d70206974656d0000000000000000000000000000000000000000000000600555600360065534801561004457600080fd5b50600160008190555033600360006101000a81548173ffffffffffffffffffffffffffffffffffffffff021916908373ffffffffffffffffffffffffffffffffffffffff160217905550611d058061009d6000396000f3fe6080604052600436106100865760003560e01c806392083b911161005957806392083b9114610137578063c23b139e14610153578063c819d85a1461016f578063e3ec567f1461019a578063f064c32e146101c357610086565b80630f08efe01461008b57806312e85585146100b6578063202e3740146100e15780634549ee781461010c575b600080fd5b34801561009757600080fd5b506100a06101ee565b6040516100ad9190611716565b60405180910390f35b3480156100c257600080fd5b506100cb610508565b6040516100d89190611747565b60405180910390f35b3480156100ed57600080fd5b506100f6610512565b6040516101039190611716565b60405180910390f35b34801561011857600080fd5b506101216108e3565b60405161012e9190611747565b60405180910390f35b610151600480360381019061014c91906117bf565b6108ed565b005b61016d6004803603810190610168919061183a565b610cb8565b005b34801561017b57600080fd5b50610184610f8c565b6040516101919190611893565b60405180910390f35b3480156101a657600080fd5b506101c160048036038101906101bc91906118ae565b610f96565b005b3480156101cf57600080fd5b506101d861108d565b6040516101e59190611716565b60405180910390f35b606060006101fc600161142b565b9050600061020a600261142b565b610214600161142b565b61021e919061190a565b90506000808267ffffffffffffffff81111561023d5761023c61193e565b5b60405190808252806020026020018201604052801561027657816020015b61026361144f565b81526020019060019003908161025b5790505b50905060005b848110156104fd57600073ffffffffffffffffffffffffffffffffffffffff16600760006001846102ad919061196d565b815260200190815260200160002060050160009054906101000a900473ffffffffffffffffffffffffffffffffffffffff1673ffffffffffffffffffffffffffffffffffffffff1614156104ea5760006007600060018461030e919061196d565b815260200190815260200160002060000154905060006007600083815260200190815260200160002090508060405180610160016040529081600082015481526020016001820160009054906101000a900473ffffffffffffffffffffffffffffffffffffffff1673ffffffffffffffffffffffffffffffffffffffff1673ffffffffffffffffffffffffffffffffffffffff16815260200160028201548152602001600382015481526020016004820160009054906101000a900473ffffffffffffffffffffffffffffffffffffffff1673ffffffffffffffffffffffffffffffffffffffff1673ffffffffffffffffffffffffffffffffffffffff1681526020016005820160009054906101000a900473ffffffffffffffffffffffffffffffffffffffff1673ffffffffffffffffffffffffffffffffffffffff1673ffffffffffffffffffffffffffffffffffffffff1681526020016006820154815260200160078201548152602001600882015481526020016009820160009054906101000a900460ff161515151581526020016009820160019054906101000a900460ff1615151515815250508486815181106104cd576104cc6119c3565b5b60200260200101819052506001856104e5919061196d565b945050505b80806104f5906119f2565b91505061027c565b508094505050505090565b6000600454905090565b60606000610520600161142b565b905060008060005b838110156105c9573373ffffffffffffffffffffffffffffffffffffffff1660076000600184610558919061196d565b815260200190815260200160002060050160009054906101000a900473ffffffffffffffffffffffffffffffffffffffff1673ffffffffffffffffffffffffffffffffffffffff1614156105b6576001836105b3919061196d565b92505b80806105c1906119f2565b915050610528565b5060008267ffffffffffffffff8111156105e6576105e561193e565b5b60405190808252806020026020018201604052801561061f57816020015b61060c61144f565b8152602001906001900390816106045790505b50905060005b848110156108d8573373ffffffffffffffffffffffffffffffffffffffff1660076000600184610655919061196d565b815260200190815260200160002060050160009054906101000a900473ffffffffffffffffffffffffffffffffffffffff1673ffffffffffffffffffffffffffffffffffffffff1614156108c55760001515600760006001846106b8919061196d565b815260200190815260200160002060090160009054906101000a905050506000600760006001846106e9919061196d565b815260200190815260200160002060000154905060006007600083815260200190815260200160002090508060405180610160016040529081600082015481526020016001820160009054906101000a900473ffffffffffffffffffffffffffffffffffffffff1673ffffffffffffffffffffffffffffffffffffffff1673ffffffffffffffffffffffffffffffffffffffff16815260200160028201548152602001600382015481526020016004820160009054906101000a900473ffffffffffffffffffffffffffffffffffffffff1673ffffffffffffffffffffffffffffffffffffffff1673ffffffffffffffffffffffffffffffffffffffff1681526020016005820160009054906101000a900473ffffffffffffffffffffffffffffffffffffffff1673ffffffffffffffffffffffffffffffffffffffff1673ffffffffffffffffffffffffffffffffffffffff1681526020016006820154815260200160078201548152602001600882015481526020016009820160009054906101000a900460ff161515151581526020016009820160019054906101000a900460ff1615151515815250508486815181106108a8576108a76119c3565b5b60200260200101819052506001856108c0919061196d565b945050505b80806108d0906119f2565b915050610625565b508094505050505090565b6000600654905090565b60026000541415610933576040517f08c379a000000000000000000000000000000000000000000000000000000000815260040161092a90611a98565b60405180910390fd5b60026000819055506000821161097e576040517f08c379a000000000000000000000000000000000000000000000000000000000815260040161097590611b04565b60405180910390fd5b60045434146109c2576040517f08c379a00000000000000000000000000000000000000000000000000000000081526004016109b990611b70565b60405180910390fd5b6109cc6001611439565b60006109d8600161142b565b90506040518061016001604052808281526020018773ffffffffffffffffffffffffffffffffffffffff1681526020018681526020018581526020013373ffffffffffffffffffffffffffffffffffffffff168152602001600073ffffffffffffffffffffffffffffffffffffffff16815260200184815260200142815260200183815260200160001515815260200160001515815250600760008381526020019081526020016000206000820151816000015560208201518160010160006101000a81548173ffffffffffffffffffffffffffffffffffffffff021916908373ffffffffffffffffffffffffffffffffffffffff160217905550604082015181600201556060820151816003015560808201518160040160006101000a81548173ffffffffffffffffffffffffffffffffffffffff021916908373ffffffffffffffffffffffffffffffffffffffff16021790555060a08201518160050160006101000a81548173ffffffffffffffffffffffffffffffffffffffff021916908373ffffffffffffffffffffffffffffffffffffffff16021790555060c0820151816006015560e0820151816007015561010082015181600801556101208201518160090160006101000a81548160ff0219169083151502179055506101408201518160090160016101000a81548160ff0219169083151502179055509050508573ffffffffffffffffffffffffffffffffffffffff166323b872dd3330886040518463ffffffff1660e01b8152600401610c1693929190611b9f565b600060405180830381600087803b158015610c3057600080fd5b505af1158015610c44573d6000803e3d6000fd5b50505050848673ffffffffffffffffffffffffffffffffffffffff16827fea461cea74cdbada20939135bbe595924923f251a98502cc6266f47c30b018988733600089428a600080604051610ca0989796959493929190611be5565b60405180910390a45060016000819055505050505050565b60026000541415610cfe576040517f08c379a0000000000000000000000000000000000000000000000000000000008152600401610cf590611a98565b60405180910390fd5b6002600081905550600060076000838152602001908152602001600020600601549050600060076000848152602001908152602001600020600201549050813414610d7e576040517f08c379a0000000000000000000000000000000000000000000000000000000008152600401610d7590611caf565b60405180910390fd5b6007600084815260200190815260200160002060040160009054906101000a900473ffffffffffffffffffffffffffffffffffffffff1673ffffffffffffffffffffffffffffffffffffffff166108fc349081150290604051600060405180830381858888f19350505050158015610dfa573d6000803e3d6000fd5b508373ffffffffffffffffffffffffffffffffffffffff166323b872dd3033846040518463ffffffff1660e01b8152600401610e3893929190611b9f565b600060405180830381600087803b158015610e5257600080fd5b505af1158015610e66573d6000803e3d6000fd5b50505050336007600085815260200190815260200160002060050160006101000a81548173ffffffffffffffffffffffffffffffffffffffff021916908373ffffffffffffffffffffffffffffffffffffffff16021790555042600760008581526020019081526020016000206007018190555060016007600085815260200190815260200160002060090160016101000a81548160ff021916908315150217905550610f136002611439565b600360009054906101000a900473ffffffffffffffffffffffffffffffffffffffff1673ffffffffffffffffffffffffffffffffffffffff166108fc6004549081150290604051600060405180830381858888f19350505050158015610f7d573d6000803e3d6000fd5b50505060016000819055505050565b6000600554905090565b60076000600183610fa7919061196d565b81526020019081526020016000206007015442610fc4919061190a565b60076000600184610fd5919061196d565b81526020019081526020016000206008016000828254610ff5919061190a565b9250508190555060006007600060018461100f919061196d565b8152602001908152602001600020600801541161108a57600060076000600184611039919061196d565b815260200190815260200160002060080181905550600160076000600184611061919061196d565b815260200190815260200160002060090160006101000a81548160ff0219169083151502179055505b50565b6060600061109b600161142b565b905060008060005b83811015611144573373ffffffffffffffffffffffffffffffffffffffff16600760006001846110d3919061196d565b815260200190815260200160002060040160009054906101000a900473ffffffffffffffffffffffffffffffffffffffff1673ffffffffffffffffffffffffffffffffffffffff1614156111315760018361112e919061196d565b92505b808061113c906119f2565b9150506110a3565b5060008267ffffffffffffffff8111156111615761116061193e565b5b60405190808252806020026020018201604052801561119a57816020015b61118761144f565b81526020019060019003908161117f5790505b50905060005b84811015611420573373ffffffffffffffffffffffffffffffffffffffff16600760006001846111d0919061196d565b815260200190815260200160002060040160009054906101000a900473ffffffffffffffffffffffffffffffffffffffff1673ffffffffffffffffffffffffffffffffffffffff16141561140d57600060076000600184611231919061196d565b815260200190815260200160002060000154905060006007600083815260200190815260200160002090508060405180610160016040529081600082015481526020016001820160009054906101000a900473ffffffffffffffffffffffffffffffffffffffff1673ffffffffffffffffffffffffffffffffffffffff1673ffffffffffffffffffffffffffffffffffffffff16815260200160028201548152602001600382015481526020016004820160009054906101000a900473ffffffffffffffffffffffffffffffffffffffff1673ffffffffffffffffffffffffffffffffffffffff1673ffffffffffffffffffffffffffffffffffffffff1681526020016005820160009054906101000a900473ffffffffffffffffffffffffffffffffffffffff1673ffffffffffffffffffffffffffffffffffffffff1673ffffffffffffffffffffffffffffffffffffffff1681526020016006820154815260200160078201548152602001600882015481526020016009820160009054906101000a900460ff161515151581526020016009820160019054906101000a900460ff1615151515815250508486815181106113f0576113ef6119c3565b5b6020026020010181905250600185611408919061196d565b945050505b8080611418906119f2565b9150506111a0565b508094505050505090565b600081600001549050919050565b6001816000016000828254019250508190555050565b60405180610160016040528060008152602001600073ffffffffffffffffffffffffffffffffffffffff1681526020016000815260200160008152602001600073ffffffffffffffffffffffffffffffffffffffff168152602001600073ffffffffffffffffffffffffffffffffffffffff1681526020016000815260200160008152602001600081526020016000151581526020016000151581525090565b600081519050919050565b600082825260208201905092915050565b6000819050602082019050919050565b6000819050919050565b61152e8161151b565b82525050565b600073ffffffffffffffffffffffffffffffffffffffff82169050919050565b600061155f82611534565b9050919050565b61156f81611554565b82525050565b600061158082611534565b9050919050565b61159081611575565b82525050565b60008115159050919050565b6115ab81611596565b82525050565b610160820160008201516115c86000850182611525565b5060208201516115db6020850182611566565b5060408201516115ee6040850182611525565b5060608201516116016060850182611525565b5060808201516116146080850182611587565b5060a082015161162760a0850182611587565b5060c082015161163a60c0850182611525565b5060e082015161164d60e0850182611525565b50610100820151611662610100850182611525565b506101208201516116776101208501826115a2565b5061014082015161168c6101408501826115a2565b50505050565b600061169e83836115b1565b6101608301905092915050565b6000602082019050919050565b60006116c3826114ef565b6116cd81856114fa565b93506116d88361150b565b8060005b838110156117095781516116f08882611692565b97506116fb836116ab565b9250506001810190506116dc565b5085935050505092915050565b6000602082019050818103600083015261173081846116b8565b905092915050565b6117418161151b565b82525050565b600060208201905061175c6000830184611738565b92915050565b600080fd5b61177081611554565b811461177b57600080fd5b50565b60008135905061178d81611767565b92915050565b61179c8161151b565b81146117a757600080fd5b50565b6000813590506117b981611793565b92915050565b600080600080600060a086880312156117db576117da611762565b5b60006117e98882890161177e565b95505060206117fa888289016117aa565b945050604061180b888289016117aa565b935050606061181c888289016117aa565b925050608061182d888289016117aa565b9150509295509295909350565b6000806040838503121561185157611850611762565b5b600061185f8582860161177e565b9250506020611870858286016117aa565b9150509250929050565b6000819050919050565b61188d8161187a565b82525050565b60006020820190506118a86000830184611884565b92915050565b6000602082840312156118c4576118c3611762565b5b60006118d2848285016117aa565b91505092915050565b7f4e487b7100000000000000000000000000000000000000000000000000000000600052601160045260246000fd5b60006119158261151b565b91506119208361151b565b925082821015611933576119326118db565b5b828203905092915050565b7f4e487b7100000000000000000000000000000000000000000000000000000000600052604160045260246000fd5b60006119788261151b565b91506119838361151b565b9250827fffffffffffffffffffffffffffffffffffffffffffffffffffffffffffffffff038211156119b8576119b76118db565b5b828201905092915050565b7f4e487b7100000000000000000000000000000000000000000000000000000000600052603260045260246000fd5b60006119fd8261151b565b91507fffffffffffffffffffffffffffffffffffffffffffffffffffffffffffffffff821415611a3057611a2f6118db565b5b600182019050919050565b600082825260208201905092915050565b7f5265656e7472616e637947756172643a207265656e7472616e742063616c6c00600082015250565b6000611a82601f83611a3b565b9150611a8d82611a4c565b602082019050919050565b60006020820190508181036000830152611ab181611a75565b9050919050565b7f7072696365206d757374206265203e207a65726f000000000000000000000000600082015250565b6000611aee601483611a3b565b9150611af982611ab8565b602082019050919050565b60006020820190508181036000830152611b1d81611ae1565b9050919050565b7f7072696365206d7573742062652076616c696400000000000000000000000000600082015250565b6000611b5a601383611a3b565b9150611b6582611b24565b602082019050919050565b60006020820190508181036000830152611b8981611b4d565b9050919050565b611b9981611554565b82525050565b6000606082019050611bb46000830186611b90565b611bc16020830185611b90565b611bce6040830184611738565b949350505050565b611bdf81611596565b82525050565b600061010082019050611bfb600083018b611738565b611c08602083018a611b90565b611c156040830189611b90565b611c226060830188611738565b611c2f6080830187611738565b611c3c60a0830186611738565b611c4960c0830185611bd6565b611c5660e0830184611bd6565b9998505050505050505050565b7f706c65617365207375626d69742061736b696e67207072696365000000000000600082015250565b6000611c99601a83611a3b565b9150611ca482611c63565b602082019050919050565b60006020820190508181036000830152611cc881611c8c565b905091905056fea2646970667358221220a8fbaa9bab377bed0cae9250dfd3cb9ca15523a8ed1e2c7007afa48f025a187364736f6c63430008090033",
  "linkReferences": {},
  "deployedLinkReferences": {}
}